:020000040000FA
:060000000A128A110C280F
:10000800FE00030EF1000A08F2000A128A114328C2
:100018000A128A110F28F701F80183010A128A11BE
:10002800742801308316031788008901213083164C
:100038000313850086018715071687128312031399
:10004800850186010A128A119A200A128A11F3017F
:10005800F401F50124300A128A115E200A128A116D
:100068008B170B17831603130C17831203130C1328
:10007800831603138C15831203138C110800831243
:1000880003130C1F482849284E280C131E08F0009B
:100098007008F8008C1D5128522857281308F000C2
:1000A8007008F7008C1172088A00710E8300FE0E2A
:1000B8007E0E0900F600831603138712761D652845
:1000C80066286A287508940087156E2873087504D1
:1000D80094008711760874048312031394000800AF
:1000E8000A128A1115200A128A110A128A11882006
:1000F8000A128A117808831203139300780886007D
:1001080079280A128A110C28831203139F188D2844
:100118008E28992800000000000000000000000060
:1001280000000000831203139F140800413083125B
:1001380003139F00831603139F131F129F120800B7
:04400E00D420FF3F7C
:00000001FF
