:020000040000FA
:060000000A128A110C280F
:10000800FE00030EF2000A08F3000A128A1169289A
:100018000A128A110F28F801F90183010A128A11BC
:100028008E28013083160317880089012130831632
:100038000313850086018715071687128901831225
:1000480003138501860189010A128A11D1200A1237
:100058008A11F401F501F60124300A128A11A92047
:100068000A128A118B170B17831603130C178312A6
:1000780003130C1308001930780203184428452884
:100088004B288312031309158910091068281A30A0
:100098007802031C502851285D2824307802031860
:1000A800562857285D28831203130911891409104B
:1000B800682825307802031C622863286828831280
:1000C80003130911891009140800831203130C1F64
:1000D8006E286F287D280C13831603131E08F00062
:1000E8007008F8007808F0000310700CF10071082F
:1000F800F80083128C1D8128822887281308F000B5
:100108007008F9008C1173088A00720E8300FE0EC5
:100118007E0E09000A128A1115200A128A110A1283
:100128008A11BF200A128A117808831203139300D8
:100138000A128A113F200A128A11780883120313BF
:10014800860093280A128A110C28F70083160313D5
:100158008712771DB028B128B5287608940087152E
:10016800B9287408760494008711770875048312F7
:10017800031394000800831203139F18C428C5288A
:10018800D02800000000000000000000000000006F
:100198000000831203139F140800413083120313D5
:1001A8009F008830831603139F009F171F129F120A
:0201B80008003D
:04400E00D420FF3F7C
:00000001FF
