:020000040000FA
:060000000A128A110C280F
:10000800FE00030EF1000A08F2000A128A11D72C2A
:100018000A128A110F28FA018313203084004A300B
:100028000A128A11F6240A128A1183010A128A1105
:100038001D280A128A11AE230A128A110A128A117D
:10004800E9240A128A110230831203133706031DAA
:100058002E282F284828051085140515FF309300F1
:100068000D3083120313DF00FB30DE00DE0B3A286D
:10007800DF0B3A28831203131308DE005E08B6006C
:10008800051485140515B7013703031D4C284D28A1
:1000980069280514851005150F3093000D3083125B
:1000A8000313DF00FB30DE00DE0B5828DF0B582877
:1000B800831203131308DE005E08B50005148514C7
:1000C80005150130DE005E08B7073708031D6D28E7
:1000D8006E288A28051485140511FC3093000D300C
:1000E80083120313DF00FB30DE00DE0B7928DF0B01
:1000F8007928831203131308DE005E08B400051480
:10010800851405150130DE005E08B7070B30F700CF
:100118008030F8000A128A112C230A128A11F7017A
:1001280001300A128A115D240A128A1120308312C2
:100138000313DE005E08D1003608DF00E0015F0827
:10014800D2006008D30044300A128A11AB210A1287
:100158008A114430F7000030F8000A128A112C2363
:100168000A128A11063083120313DE005E08F700B4
:1001780001300A128A115D240A128A112030831272
:100188000313DE005E08D1003508DF00E0015F08D8
:10019800D2006008D3003E300A128A11AB210A123D
:1001A8008A113E30F7000030F8000A128A112C2319
:1001B8000A128A110B3083120313DE005E08F7005F
:1001C80001300A128A115D240A128A112030831222
:1001D8000313DE005E08D1003408DF00E0015F0889
:1001E800D2006008D30038300A128A11AB210A12F3
:1001F8008A113830F7000030F8000A128A112C23CF
:100208000A128A110B300A128A1132240A128A1130
:100218000D308312031399004408990007308312A4
:100228000313DF007C30DE00DE0B1829DF0B1829F2
:100238000000831203134508990007308312031343
:10024800DF007C30DE00DE0B2729DF0B27290000CA
:100258008312031346089900073083120313DF0043
:100268007C30DE00DE0B3629DF0B362900001C301F
:100278000A128A1132240A128A11831203133E08C1
:100288009900073083120313DF007C30DE00DE0B99
:100298004B29DF0B4B290000831203133F089900F9
:1002A800073083120313DF007C30DE00DE0B5A298F
:1002B800DF0B5A2900008312031340089900073006
:1002C80083120313DF007C30DE00DE0B6929DF0BAD
:1002D800692900001B300A128A1132240A128A1175
:1002E8008312031338089900073083120313DF00C1
:1002F8007C30DE00DE0B7E29DF0B7E2900008312B6
:10030800031339089900073083120313DF007C3088
:10031800DE00DE0B8D29DF0B8D290000831203130D
:100328003A089900073083120313DF007C30DE009F
:10033800DE0B9C29DF0B9C2900002030831203135D
:1003480099000D30990022280A128A110C2883126C
:100358000313DC005230D4005408D7007E2A25301D
:100368005D060319B829B929C5295D08D4005C08B8
:1003780084005408831380000130D4005408DC073B
:100388007E2AD8010130D107FF30510784000A12B4
:100398008A110A240A128A11DD00D400D5015508F1
:1003A800003A0319D8297E2A5408003A0319902ADA
:1003B800643A0319E3290D3A0319E3297E2A5708F9
:1003C800840083130008DA00840A0008DB00023086
:1003D800D4005408D707DB1FF229F329FC2903307E
:1003E800D4005408D804DA09DB09DA0A0319DB0A4D
:1003F800DD01DD0A5D08D4005407013E84000A12BD
:100408008A110A240A128A11D5000A128A110A24AA
:100418000A128A11D60056085B02031D152A5508D0
:100428005A020318182A192A1A2A242A0130D40031
:100438005408DD0705305D06031D232A242AFE29FA
:10044800580803390319292A2A2A352A2D30D400B5
:100458005C0884005408831380000130D4005408D9
:10046800DC075D08D4005408D900752A0A30CD008D
:100478000030CE005908D4005407013E84000A1207
:100488008A110A240A128A11F3000A128A110A240C
:100498000A128A11F4005B08F6005A08F5000A12DD
:1004A8008A11E6220A128A11740883120313D000F3
:1004B8007308CF000A128A1172230A128A11831252
:1004C80003134D08303ED5005508DD005D08D40003
:1004D8005C0884005408831380000130D400540859
:1004E800DC07FF30D4005408D907590A031D7D2AB8
:1004F8007E2A3A2A0130D107FF30510784000A12B8
:100508008A110A240A128A11D4005408DD005D08F1
:10051800031D8F2A902AB3295C0884008313800165
:10052800080000300A128A11FE240A128A111A30B1
:10053800F800F830F700F70B9F2AF80B9F2A000005
:1005480030300A128A1192240A128A110730F800F0
:100558007D30F700F70BAE2AF80BAE2A30300A12BE
:100568008A1192240A128A110F30F8004730F700D6
:10057800F70BBC2AF80BBC2AC12A30300A128A11A0
:1005880092240A128A1138300A128A1192240A1205
:100598008A1110300A128A1192240A128A11013023
:1005A8000A128A1192240A128A1106300A128A1132
:1005B80092240A128A110F300A128A1192240A12FE
:1005C8008A11080083120313CB01CC017308740449
:1005D8000319EF2AF02A272BCA01CA0AFE2A01307A
:1005E8000310F30DF40DFF3E031DF42A0130F7004C
:1005F8007708CA07F41F012B022BF32A01300310D6
:10060800CB0DCC0DFF3E031D032B74087602031D92
:100618000F2B73087502031C122B132B1A2B73084C
:10062800F5027408031CF603F6024B14013003109C
:10063800F40CF30CFF3E031D1B2B0130CA02031DF3
:10064800262B272B022B4C08F4004B08F30008003C
:1006580083120313CD01CE01552B4D087707CB002C
:100668007808CA000318CA0ACD1F3B2BCA03831295
:1006780003134A08CC004C08FF004B0884000A12F8
:100688008A1100240A128A110A128A1178240A127D
:100698008A11013083120313CD070318CE0A0030E4
:1006A800CE074D087707CB007808CA000318CA0A96
:1006B800CD1F5F2BCA03831203134A08CC004C08D2
:1006C800FF004B0884000A128A1100240A128A11BA
:1006D800003A031D702B712B312B08008312031372
:1006E8004D084E040319792B7A2BA92BF901F90A25
:1006F800882B01300310CD0DCE0DFF3E031D7E2B40
:100708000130F8007808F907CE1F8B2B8C2B7D2B36
:100718004E085002031D922B4D084F02031C952BC7
:10072800962B9C2B4D08CF024E08031CD003D002F9
:1007380001300310CE0CCD0CFF3E031D9D2B013064
:10074800F902031DA82BA92B8C2B5008CE004F08AB
:10075800CD00080083160317880189018316031347
:10076800850186018711071687128801890183127E
:10077800031385018601880189010A128A119522CD
:100788000A128A110C300A128A1192240A128A114A
:100798000A128A11C2240A128A11F301F401F5011E
:1007A80020300A128A11AC240A128A118316031304
:0A07B8008C15831203138C11080046
:10080000FF1B0A2C83137F1883170008840A03191F
:10081000FF0A080004308A000408840A82070034B2
:10082000013400340A34003464340034E8340334CE
:100830001034273450346F3474342034203443342B
:100840006F346E34743420342034543465346D3451
:1008500070340034203420342034203400342534E3
:1008600064340034F700F501F6014F2C7508770762
:1008700084000A128A110A240A128A1183120313AD
:1008800099000730F4007D30F300F30B452CF40B96
:10089000452C0130F5070318F60A0030F6077508F5
:1008A000770784000A128A110A240A128A11003A70
:1008B000031D5B2C5C2C362C0800F8007808031D07
:1008C000622C632C6B2C7708803E0A128A119224CA
:1008D0000A128A11772C7803031D6F2C702C772C49
:1008E0007708C03E0A128A1192240A128A1108005F
:1008F000F60083120313091476080A128A11FE24E3
:100900000A128A118312031389140630F50030305D
:10091000F400F40B892CF50B892C000083120313CF
:1009200089100800F60083120313091076080A12D2
:100930008A11FE240A128A118312031389140630C5
:10094000F5003030F400F40BA32CF50BA32C0000C1
:100950008312031389100800F6008316031387120D
:10096000761DB32CB42CB82C750894008715BC2CBC
:1009700073087504940087117608740483120313B6
:1009800094000800193083160313990018151812E3
:10099000831203139817831603138717071318136B
:1009A0008312031318168316031398160800831274
:1009B00003138C1DDC2CDD2CE22C1308F0007008D6
:1009C000FA008C1172088A00710E8300FE0E7E0EF2
:1009D000090000300A128A1192240A128A11013089
:1009E0000A128A1192240A128A11080064008001F6
:1009F000840A0406031900340406F72CF300730874
:080A00008312031388000800B3
:04400E00D420FF3F7C
:00000001FF
