:020000040000FA
:060000000A128A110C280F
:10000800FE00030EF1000A08F2000A128A116F2896
:100018000A128A110F28FA0183010A128A11142878
:100028000A128A113C200A128A1183120313060845
:100038009300091C2028212832280130F70077086E
:1000480086070230F9006630F8002130F700F70B18
:100058002B28F80B2B28F90B2B281928891C352855
:10006800362819280130860225280A128A110C28F8
:10007800831603178801890120308316031385002E
:100088008601871507168712033089008312031328
:10009800850186018901F301F401F50124300A1272
:1000A8008A1159200A128A110800F60083160313D0
:1000B8008712761D602861286528750894008715C1
:1000C80069287308750494008711760874048312EC
:1000D800031394000800831203138C1D74287528D9
:1000E8007A281308F0007008FA008C1172088A0048
:0A00F800710E8300FE0E7E0E09005B
:04400E00D420FF3F7C
:00000001FF
